:020000040800F2
:1000000028AA002045010008171C00084D18000808
:10001000151C00089908000835230008000000009E
:10002000000000000000000000000000291D000882
:10003000CD08000800000000ED1C0008491D000864
:100040005F0100085F0100085F0100085F01000810
:100050005F0100085F0100085F0100085F01000800
:100060005F0100085F0100085F0100085F010008F0
:100070005F0100085F0100085F0100085F010008E0
:100080005F0100085F0100085F0100085F010008D0
:100090005F0100085F0100085F0100085F010008C0
:1000A0005F0100085F0100085F0100085F010008B0
:1000B0005F0100085F0100085F0100085F010008A0
:1000C0005F0100085F0100085F0100085F01000890
:1000D0005F0100081D230008292300085F010008B4
:1000E0005F0100085F0100085F0100085F01000870
:1000F0005F0100085F0100085F0100085F01000860
:100100005F0100085F0100085F0100085F0100084F
:100110005F0100085F0100085F0100085F0100083F
:100120005F0100085F0100085F0100085F0100082F
:10013000DFF80CD000F09EFB004800473553000864
:1001400028AA00200648804706480047FEE7FEE749
:10015000FEE7FEE7FEE7FEE7FEE7FEE7FEE7FEE777
:10016000B11D000831010008202A04DB203A21FAE1
:1001700002F00021704721FA02F3D040C2F12002C0
:100180009140084319467047D2B201E000F8012BB4
:10019000491EFBD270470022F6E710B513460A4607
:1001A00004461946FFF7F0FF204610BD421C10F828
:1001B000011B0029FBD1801A70472DE9FE4F8046B4
:1001C00081EA0300C00F0C46009021F0004123F0AB
:1001D0000045B8EB0200A94105D2404621469046B1
:1001E0001C460B46024623F00040104347D0270D23
:1001F000C7F30A00C3F30A510290401A0190402845
:100200006BDAC3F3130040F4801B0098924620B1D0
:100210000023D2EB030A63EB0B0B01985946C0F1A4
:100220004002504600F020FA06460D465046594618
:10023000019A00F028FA10EB08006141002487EAD7
:10024000115284EAE7731A4340D0009A62B3019ACC
:10025000012A4FEA075215DC001B61EB02014FF047
:10026000004202EA0752CDE90042001C41F580112C
:1002700032462B4600F05FFA03B0BDE8F08F4046EF
:100280002146F9E7001B61EB0201001C41F58013D8
:1002900000185B412018A2F5001747EB030140EA64
:1002A000D570B6196D4111E06D084FEA360645EA82
:1002B000C0754FEA0752001B61EB0201001C41F5BB
:1002C000801149084FEA30000019514132462B464F
:1002D00003B0BDE8F04F00F01FBA009801224000C3
:1002E0000023D0EB020263EBE073009821464FEA53
:1002F000E074B8EB000061EB0401E9E783F0004330
:100300005BE781F0004158E72DE9FE4F81EA0304E5
:1003100004F0004421F0004100944FF0000B23F062
:10032000004350EA01045ED052EA03045BD0C3F3F9
:100330000A54C1F30A552C44A4F2F3340194A0FBEF
:100340000254C1F3130141F48011C3F3130343F4C6
:10035000801301FB024400FB034E840A970A44EA1F
:10036000815447EA8357A4FB076802958D0A05FB71
:1003700007854FEA932C04FB0C542705029D4FEA96
:10038000065847EA1637B5EB08056EEB070C870EE3
:10039000920E47EA811742EA8312A7FB0201B6EBED
:1003A0000B0164EB00042B0D43EA0C335E1844EBA5
:1003B0001C50DA465146E7FB0201C5F313044FEA2D
:1003C0000B3343EA14534FEA0432019C43EA060319
:1003D000A4F10C040294009CCDE900B400F0ABF948
:1003E00003B0BDE8F08F00200146F9E72DE9F04D9C
:1003F00081EA030404F0004B21F0004514464FF05D
:10040000000A23F0004150EA050220D054EA01021C
:100410001DD0C5F30A570246C5F31303C1F31300F9
:10042000C1F30A5640F4801543F48013A7EB060885
:10043000101BD64608F2FD3873EB050002D308F115
:10044000010801E092185B41B8F1000F03DA0020C7
:100450000146BDE8F08D00204FF480110646844629
:100460000EE0171B73EB050705D3121B63EB0503A7
:1004700006434CEA010C49084FEA300092185B41F0
:1004800050EA0107EDD152EA030012D082EA0400DB
:1004900083EA0501084305D0101BAB4106D20122B7
:1004A000002306E000224FF0004302E06FF001025B
:1004B00053101AEB06004CEB085110EB0A0041EB0D
:1004C0000B01BDE8F04D00F027B970B521F00043F5
:1004D00003430CD0C1F30A550024D5EB040564EBAB
:1004E0000403D617AD1AB34102DB0020014670BDEC
:1004F000201841EB025170BDC10F80EAE070084442
:10050000CA079623002100F0D9B80EB5C10F80EAC2
:10051000E0700844CA07002140F233438DE80E0022
:100520000A460B4600F007F903B000BD70B5C1F3F1
:100530000A5201F000450024C1F3130140F2FF33D9
:1005400041F480119A4201DA002070BD40F2334339
:100550009A42A2F2334203DC5242FFF705FE00E06A
:1005600090402C43F1D0404270BD00F0004230F08A
:1005700000400AD0C10D01F56071C0F3160042EAD7
:100580000151C208400711437047002001467047DF
:1005900030B5041E71F1000404DB4FF0004440420A
:1005A00064EB0101141E73F1000405DB1C464FF0DF
:1005B0000043524263EB04038B4208BF824230BDCA
:1005C00030B5041E71F1000404DB4FF000444042DA
:1005D00064EB0101141E73F1000405DB1C464FF0AF
:1005E0000043524263EB0403994208BF904230BD7E
:1005F00001F0004330B421F0004150EA010206D07E
:100600000A0DA2F56072C1F31301002A02DC30BCAE
:1006100000207047440F44EAC104C100E01830BC18
:1006200000EBC25000F041B8002801DBC0F10040EF
:10063000002901DBC1F100418142704730B50B4612
:10064000014600202022012409E021FA02F59D4202
:1006500005D303FA02F5491B04FA02F52844151ED6
:10066000A2F10102F1DC30BD202A04DB203A00FABD
:1006700002F1002070479140C2F1200320FA03F3F9
:10068000194390407047202A06DBCB17203A41FAE5
:1006900002F043EAE07306E041FA02F3D040C2F10F
:1006A000200291400843194670470029A8BF7047AF
:1006B000401C490008BF20F00100704710B4B0FA98
:1006C00080FC00FA0CF050EA010404BF10BC704733
:1006D00049B1CCF1200421FA04F411FA0CF118BF4D
:1006E000012121430843A3EB0C01CB1D4FEA00611C
:1006F0004FEA102042BF002010BC704700EBC350EF
:1007000010440029A4BF10BC7047401C490008BF1A
:1007100020F0010010BC704710B5141E73F10004E6
:1007200008DA401C41F1000192185B411A4301D1E3
:1007300020F0010010BD2DE9F04D92469B4611B10D
:10074000B1FA81F202E0B0FA80F220329046FFF76F
:100750008BFF04460F4640EA0A0041EA0B0153466C
:100760005A46084313D0114653EA010019D0C8F184
:1007700040025046FFF7F8FC05460E4650465946E3
:100780004246FFF771FF084305D0012004E02046F0
:100790003946BDE8F08D0020054346EAE0762C435B
:1007A00037430A986305E40AA0EB08000022FD0A1B
:1007B00044EA47540A3002D500200146E9E7010522
:1007C00010196941DDE9084500196941BDE8F04D9E
:1007D000A2E72DE9F04D00231A461B1A8A4103DBDC
:1007E00000200146BDE8F08DC1F30A52C1F31301A8
:1007F00041F480154FF0000BD10702D100186D4174
:10080000521E0027044640F2FF11384601EB620AEF
:100810003E468046024600204FF48011FFF7A4FCBC
:10082000C2197141BB1846EB0100B4EB030C75EB28
:10083000000C04D3E41A65EB000517460E46241994
:1008400008F101006D4180463428E3DDF91946EBDB
:100850000600091BA84103D24FF0FF32134601E006
:10086000002213461BEB070046EB0A51BDE8F04D92
:10087000FFF752BF064C074D06E0E06840F0010369
:1008800094E8070098471034AC42F6D3FFF754FCC5
:10089000205B0008405B0008FEE7000010B5024640
:1008A00004A1054801F0C4FDBDE810400349024819
:1008B00001F03BBA256420004C000020A800002075
:1008C000014901F032BA0000A80000207047000082
:1008D0002DE9F05F90F821100024022903D00421B3
:1008E0008163012485E001680A6822F00E020A6033
:1008F00001680A6822F001020A603F4E3E4FB215BD
:10090000DFF8F4C0DFF8F090DFF8ECA0DFF8E8B033
:10091000DFF8E4E00168783F13011502ACF1640CE4
:10092000A9F15009AAF13C0AABF1280BAEF1140E63
:100930004FF48018B14227D9B9420ED0614512D088
:1009400049451DD0514518D0594518D0714501D1A0
:10095000424615E0294EB14201D1012210E0274E56
:100960001436B14201D110220AE0244E2836B14299
:1009700006D0224A3C32914201D11A4600E02A4672
:100980001E49091F0A602BE0B94213D0614517D0F8
:10099000494522D051451DD059451DD0714501D141
:1009A00042461AE0B14202D14FF0807215E0134E78
:1009B000B14201D1012210E0104E1436B14201D1F2
:1009C00010220AE00D4E2836B14206D00B4A3C32C6
:1009D000914201D11A4600E02A46074980394A600F
:1009E000012180F82110002180F82010416B01B115
:1009F00088472046BDE8F09F80000240080402407E
:100A000070B5044600F00CF90546601C02D004489D
:100A10000078044400F004F9401BA042FAD370BDF2
:100A2000000000202DE9F84FDFF8B8A100220AF1FC
:100A3000040B144601274FF00F090BF1040E00BF01
:100A40000B6807FA04F52B40AB4274D1DFF898C16C
:100A50004E68A6EB0C0866452BD00DDC032E34D077
:100A600005DC36B3012E19D0022E2FD11BE0112E3A
:100A700016D0122E2AD119E0B8F5881F19D006DC3D
:100A8000B8F5803F15D0B8F5801F1FD111E0B8F53B
:100A9000001F0ED0B8F5041F18D10AE0CA6815E08F
:100AA000CA68121D12E0CA6808320FE0CA680C3228
:100AB0000CE08A682AB1012A4FF0080203D0456190
:100AC00004E0042202E0056100E00022FF2B01D8CF
:100AD000064601E000F104064FEA840501D9A5F1BC
:100AE0002005D6F800C009FA05F82CEA080C02FA2D
:100AF00005F54CEA050CC6F800C04D68ED006AD556
:100B00003A4DAE6946F00106AE61AD6924F00306C8
:100B100005F001050095364D06EB050CDCF8085094
:100B2000A6074FEA167809FA08F6B543314EB042E7
:100B300002D100261AE04EE02F4EB04201D101262C
:100B400014E02E4EB04201D102260FE02C4EB042EE
:100B500001D103260AE02B4EB04201D1042605E064
:100B6000294EB04201D1052600E0062606FA08F615
:100B70002E43CCF808604D68DAF80060ED03554666
:100B800001D51E4300E09E432E604D68AD0305D5A0
:100B9000DBF800601E43CBF8006004E0DBF8005097
:100BA0009D43CBF800504D68DEF80060ED027546BD
:100BB00001D51E4300E09E432E604D68AD0205D571
:100BC000084D0C352E681E432E6004E0054E0C3691
:100BD00035689D433560641C102CFFF431AFBDE8CF
:100BE000F88F0000000401400000111000100240C6
:100BF0000000014000080140000C014000100140CD
:100C00000014014000180140001C014080680840A9
:100C100000D0012070470AB1016170470904FBE769
:100C20000148806870470000000000200248816889
:100C3000027811448160704700000020074810B519
:100C4000016841F010010160032000F08DF80020E0
:100C500000F006F800F024F8002010BD002002404B
:100C600070B50D4D04464FF47A712878B1FBF0F061
:100C70000A490968B1FBF0F000F01DFB48B9102CDF
:100C800007D200222146501E00F04EF800206C6072
:100C900070BD012070BD0000000000200C0000208D
:100CA0001A4808B5816941F001018161806900F04D
:100CB00001000090032000F057F8002211466FF069
:100CC0000B0000F031F8002211466FF00A0000F02E
:100CD0002BF8002211466FF0090000F025F80022E1
:100CE0001146501F00F020F800221146101F00F09E
:100CF0001BF800221146901E00F016F80022BDE8F5
:100D000008401146501E00F00FB8000000100240CD
:100D100000F01F02012191404009800000F1E02015
:100D2000C0F8001170470000F0B40E4B1B680C4671
:100D3000C3F30223C3F10705042D00D90425191DAF
:100D4000072901D2002300E0DB1E012606FA05F187
:100D5000491E214099409E40761E16403143F0BC0A
:100D600000F05ABF0CED00E0064900F007020868E9
:100D70004FF6FF03184040EA0220034A1043086080
:100D8000704700000CED00E00000FA052DE9F04787
:100D9000DFF83C8105460E46D8F8000000F0070059
:100DA000B0420CD2D8F8001021F007013143C8F846
:100DB0000010D8F8000000F00700B04263D1287896
:100DC000444C800705D56068A96820F0F00008430E
:100DD00060602878C00745D06868012816D021686F
:100DE000022816D0890700294DDA616821F0030135
:100DF00001436160FFF714FF6968074641F28830DC
:100E000001290FD00229814619D027E021688903E2
:100E1000E9E78901E7E700BFFFF702FFC11B49458A
:100E200001D918E081466068C0F381000128F3D140
:100E300018E000BFFFF7F4FEC11B49450BD86068FE
:100E4000C0F381000228F5D10CE000BFFFF7E8FEF7
:100E5000C11B494502D90320BDE8F087606810F046
:100E60000C0FF3D1D8F80010404601F00701B14251
:100E70000BD9016821F0070131430160006800F0DF
:100E80000700B04201D00120E6E72878400705D5E9
:100E90006068E96820F4E060084360602878000733
:100EA00006D56068296920F4605040EAC10060609E
:100EB00000F03CF86168084AC1F30311515CC84076
:100EC000064908600020FFF7CBFE0020C4E70000C1
:100ED0000020024000100240045900080C000020CD
:100EE00001480068704700000C00002004480549D4
:100EF00000684968044AC1F30221515CC840704748
:100F00000C00002000100240145900080448054954
:100F100000684968044AC1F3C221515CC840704767
:100F20000C000020001002401459000812A185B0E6
:100F30000FC98DE80F0014A0144A0068049051688E
:100F4000134801F00C03042B10D0082B0ED1C1F371
:100F50008343C9031DF803000AD5516804AAC1F3ED
:100F60004041515C0A4A5043B0FBF1F005B0704774
:100F700008494843FAE70000020304050607080988
:100F80000A0B0C0D0E0F10100102000000100240A1
:100F900000127A0000093D002DE9F84F0446007860
:100FA000B94DC00748D06868C0F38100012807D058
:100FB0006868C0F38100022809D16868C00306D5BB
:100FC0002868800338D5606800286FD034E06068F6
:100FD000B0F5803F0BD010B1B0F5A02F11D028682C
:100FE00020F480302860286820F4802002E02868FF
:100FF00040F480302860606888B1FFF711FE064633
:1010000009E0286840F480202860F0E7FFF708FE38
:10101000801B642875D828688003F7D50CE0FFF79B
:10102000FFFD064605E000BFFFF7FAFD801B6428C0
:10103000F0D828688003F7D42078944E80074FF0CA
:1010400001094FF000083BD5686810F00C0F07D07D
:101050006868C0F38100022809D16868C00306D41B
:101060002868800714D5206901281FD110E0206965
:10107000B0B1C6F80090FFF7D3FD074605E000BF0A
:10108000FFF7CEFDC01B0228C4D828688007F7D51B
:101090002868616920F0F80040EAC10028600FE08C
:1010A000C6F80080FFF7BCFD074606E0E9E000BF98
:1010B000FFF7B6FDC01B022823D828688007F7D4A5
:1010C000207800072CD57248A169D9B1C0F80090EA
:1010D000FFF7A6FD074604E0FFF7A2FDC01B0228AC
:1010E0000FD8686A8007F7D56A484FF4FA5100684C
:1010F000B0FBF1F0009000BF0098411E0091FAD2C1
:101100000EE080E0C0F80080FFF78AFD074604E0AB
:10111000FFF786FDC01B022875D8686A8007F7D4E0
:101120002078400760D5E8690027C00008D4E86946
:1011300040F08050E861E869012700F0805000909D
:1011400055480168C90513D40168834641F480718C
:101150000160FFF765FD824606E000BFFFF760FD16
:10116000A0EB0A0064284ED8DBF80000C005F5D5D6
:10117000E06801280AD008B1052813D0286A20F0B9
:1011800001002862286A20F0040002E0286A40F08A
:1011900001002862E06841F2883B98B1FFF740FD0A
:1011A00082460BE0286A40F004002862EEE700BFA8
:1011B000FFF736FDA0EB0A0159455AD8286A800787
:1011C000F6D50CE0FFF72CFD824605E0FFF728FD81
:1011D000A0EB0A0159454CD8286A8007F6D41FB104
:1011E000E86920F08050E861E06988B36968C1F37C
:1011F0008101022945D00228C6F8608004D0FFF79B
:101200000FFD044638E034E0FFF70AFD074604E02E
:10121000FFF706FDC01B02282BD828688001F7D4F1
:10122000206AB0F5803F05D16868A16820F40030DD
:1012300008436860D4E908010843696821F474111F
:1012400008436860C6F86090FFF7EAFC044606E0D1
:1012500015E000BFFFF7E4FC001B022809D828684E
:101260008001F7D50BE000BFFFF7DAFC001B022876
:1012700002D90320BDE8F88F28688001F4D400204B
:10128000F8E70120F6E700000010024000004242AB
:10129000800442420C000020007000404FF0E0212A
:1012A0000428086903D020F004000861704740F06A
:1012B0000400FAE7704710B5401EB0F1807F01D3FB
:1012C000012010BD4FF0E02460610F21601700F095
:1012D000A3FC0020A06107202061002010BD10B5F4
:1012E000FFF7E8FF10BD30B590F83C20012A20D070
:1012F000012280F83C20022380F83D3003685C68BE
:1013000024F070045C6003685C680D682C435C60CA
:1013100003689C6824F080049C6003689C684968AA
:101320000C439C6080F83D20002180F83C1008466A
:1013300030BD022030BD70B5044690F83C000D462B
:1013400001280DD0012684F83C60022084F83D007D
:1013500042B1042A18D0082A2AD00C2A4DD139E0EB
:10136000022070BD206800F099FD2068816941F07D
:10137000080181612068816921F004018161206890
:1013800081692A69114311E0206800F0B7FD2068E7
:10139000816941F4006181612068816921F4806183
:1013A0008161206881692A6941EA0221816124E022
:1013B000206800F0D9FD2068C16941F00801C161D1
:1013C0002068C16921F00401C1612068C1692A69EE
:1013D000114311E0206800F0FBFD2068C16941F471
:1013E0000061C1612068C16921F48061C161206828
:1013F000C1692A6941EA0221C16184F83D60002087
:1014000084F83C0070BD10B5040003D094F83D0092
:1014100010B107E0012010BD002084F83C002046F8
:1014200000F00CF8022084F83D00211D206800F037
:10143000E3FC012084F83D00002010BD704700004F
:1014400010B504460068012200F01CFD0849206820
:10145000884202D00749884203D1416C41F40041DF
:1014600041642068016841F001010160002010BD65
:10147000002C0140003401407047000070B5026844
:1014800004461068D168536910F00F0F51D003F073
:10149000010501F4907635435DD0C20705D0CA0539
:1014A00003D5E26B42F00102E263420705D5DA0799
:1014B00003D0E26B42F00202E263820705D5DA074D
:1014C00003D0E26B42F00402E263020705D5DA07BB
:1014D00003D0E26B42F00802E263E26B002A34D0F0
:1014E000800604D5880602D5204600F0AFFD2068AE
:1014F0004069E16BC0F3801001F008010143204610
:1015000024D000F095FD2068416949061AD541694B
:1015100021F040014161606BA0B11B494163606BE8
:10152000FFF7D6F9002810D0606B416BBDE8704022
:10153000084783060FD58B060DD52046BDE87040C1
:1015400000F084BD2046FFF797FF70BDFFF794FFC2
:101550000020E06370BD030606D50B0604D52046C7
:10156000BDE8704000F076BE4006F3D54806F1D5E0
:10157000D168204621F04001D160202184F8391043
:1015800000F063F970BD00002120000870B5040070
:1015900004D094F83900002510B106E0012070BD98
:1015A00084F83850204600F023F8242084F83900CD
:1015B0002068C16821F40051C160204600F092FD0E
:1015C0002068016921F4904101612068416921F09E
:1015D0002A0141612068C16841F40051C160E5639E
:1015E000202084F8390084F83A00002070BD000003
:1015F00070B5274E03680024264902200322264D99
:1016000086B0B3421ED18B6943F480438B618969F4
:10161000039201F4804104910102CDE90010694672
:101620002846FFF7FFF92815CDE90004694628464A
:101630000294FFF7F7F9002211462520FFF774FB0B
:10164000252020E0154EB3421FD1CB6943F400336F
:10165000CB61C969039201F4003104910421CDE901
:10166000001069462846FFF7DDF90820CDE900049F
:10167000694628460294FFF7D5F900221146262034
:10168000FFF752FB2620FFF743FB06B070BD0000BA
:1016900000380140001002400008014000440040B2
:1016A00090F83A30202B22D1F9B1F2B190F83830CD
:1016B000012B1CD081628285C2850021C163222258
:1016C00080F83A2080F838100168CA6842F48072C5
:1016D000CA6001684A6942F001024A610068C16853
:1016E00041F02001C16000207047012070470220B6
:1016F0007047000010B500682249884240D1224B53
:1017000021485B1E214C0078996860549868401C01
:10171000986001F02FFA0021012800D199609868A3
:1017200002280FDB986840280CDA9868204410F8EB
:10173000020C0D2806D19868204410F8010C0A28E4
:1017400000D199609868402812DB996094F83E00B7
:101750000D280DD194F83F000A2809D101205860C6
:101760000A4900204839225C0A54401C4028FADB10
:1017700006480122BDE810400349C838FFF790BF72
:1017800010BD000000380140110000203001002091
:101790002DE9F843044690F839001F4616460D46D9
:1017A000202850D1A5B19EB194F8380001284AD024
:1017B000012084F838004FF00008C4F83C80212054
:1017C00084F83900FFF72CFAA6848146E68426E0E7
:1017D0000120BDE8F883E08C401EE084A0684B4601
:1017E000B0F5805F4FF000024FF080012046009777
:1017F00003D000F060FDE8B90DE000F05CFDC8B971
:1018000028882168C0F308004860206908B16D1C71
:1018100005E0AD1C03E0216815F8010B4860E08C81
:101820000028D8D14B46002240212046009700F0E6
:1018300042FD08B10320CCE7202084F8390084F869
:1018400038800020C5E70220C3E77047FEE70000AC
:101850000A4882B0816941F0080181618069C02134
:1018600000F008000090064801600121416003215A
:10187000C1600146034802B0FFF7D4B8001002402F
:1018800018020020000C014010B500F03FFA104C87
:10189000002280212046FFF7BEF9012001F0C6F9A1
:1018A000012240212046FFF7B6F9012001F0BEF9E0
:1018B000002240212046FFF7AEF9012001F0B6F9E1
:1018C00020460122BDE810408021FFF7A4B90000A6
:1018D000000C014010B500F019FA012001F0A6F942
:1018E0000B4C012240212046FFF795F9012001F021
:1018F0009DF9002240212046FFF78DF9012001F0DB
:1019000095F920460122BDE810408021FFF783B9F8
:10191000000C01402DE9F041184E804600250122BF
:1019200080213046FFF777F900F0E2F9002401202A
:1019300001F07CF9012240213046FFF76CF90120CB
:1019400001F074F96806070E80213046FFF75EF952
:1019500040EA0705002240213046FFF75CF9641C8D
:10196000E4B2082CE3D3B8F1000F02D0FFF78CFFEC
:1019700001E0FFF7AFFF2846BDE8F081000C014011
:1019800070B5054600F0C2F9174E0024012001F0A1
:101990004DF9280601D5012200E0002280213046C1
:1019A000FFF739F9012001F041F9012240213046C9
:1019B000FFF731F9012001F039F9002240213046CA
:1019C000FFF729F96806641C050EE4B2082CDDD384
:1019D000012280213046FFF71EF900BF00F04EF8CB
:1019E0000028FBD170BD0000000C014010B500F0D4
:1019F0008DF9114C012280212046FFF70CF90120BE
:101A000001F014F9012240212046FFF704F90120DA
:101A100001F00CF9002280212046FFF7FCF801209C
:101A200001F004F9002240212046FFF7F4F8BDE858
:101A30001040012001F0FAB8000C014010B500F090
:101A400065F90D4C002280212046FFF7E4F80120C3
:101A500001F0ECF8012240212046FFF7DCF80120DC
:101A600001F0E4F8012280212046FFF7D4F8BDE818
:101A70001040012001F0DAB8000C014070B50024DC
:101A800000F036F9012001F0D1F80D4D012240217E
:101A90002846FFF7C0F8012001F0C8F88021284649
:101AA000FFF7B4F810B10124FFF7C8FF002240216E
:101AB0002846FFF7B0F8012001F0B8F8204670BDC5
:101AC000000C014070B5044600F038F80546641C6F
:101AD000E0B200F033F800EB052000B270BD10B5A5
:101AE000FFF7B6FE6420FEF78BFF00216B2000F0AD
:101AF0003CF80520FEF784FF00216B2000F035F84C
:101B00000520FEF77DFF0721192000F02EF80520A3
:101B1000FEF776FF06211A2000F027F80520FEF7D1
:101B20006FFF01211C2000F020F80520FEF768FF60
:101B30001821BDE810401B2000F017B810B504466E
:101B4000FFF754FFD020FFF71BFF2046FFF718FFD9
:101B5000FFF74CFFD120FFF713FF0020FFF7DAFE5D
:101B60000446FFF76BFF204610BD70B50D460446D6
:101B7000FFF73CFFD020FFF703FF2046FFF700FFF1
:101B80002846FFF7FDFEBDE87040FFF757BF000095
:101B900030B51C4885B0816941F0040181618169DB
:101BA00001F004010491816941F0100181618069B3
:101BB000154D00F010000490002270212846FFF718
:101BC0002AF87020009001200224019069460394B5
:101BD0002846FEF727FF44F2C03000900020CDE9F0
:101BE00001040A4C69462046FEF71CFF4FF4804171
:101BF0002046FFF70BF8064988704862886205B0F6
:101C000030BD0000001002400008014000100140FB
:101C100010000020FEE770470907090E002806DAC9
:101C200000F00F0000F1E02080F8141D704700F173
:101C3000E02080F8001470472DE9F041DFF8A8801B
:101C4000074688B0D8F800001C4615460E46B84234
:101C50000BD1D8F804104046B14206D18168A942A0
:101C600003D1D8F80C00A0423AD0602000900020A8
:101C70000290024604901C48694601971030FFF715
:101C80005AFB19480422694610300196FFF753FBAE
:101C900015480822694610300195FFF74CFB1248A1
:101CA0000C22694610300194FFF745FB0E480021D5
:101CB0001030FFF7C5FB0C4804211030FFF7C0FBC4
:101CC000094808211030FFF7BBFB07480C211030F2
:101CD000FFF7B6FBC8F80070C8E90165C8F80C400A
:101CE00008B0BDE8F0810000C80100207047000086
:101CF0000448802101600021416001460248FEF74E
:101D000091BE000018020020000C01400448802110
:101D100001600121416001460248FEF783BE0000D8
:101D200018020020000C0140704770B50D460446B3
:101D3000FEF73CFA401C82B221462846BDE87040BE
:101D40004FF6FF73FFF724BD10B5FEF76FFFBDE838
:101D50001040FFF7C4BA10B590B0022000900120E7
:101D6000049010200024059007946846FFF714F9AA
:101D700000B1FEE70F20CDE90A040C940D94002178
:101D80000AA80E94FFF702F800B1FEE7FFF7A8F8E3
:101D90004FF47A71B0FBF1F0FFF78DFA0420FFF7F2
:101DA0007DFA00221146501EFEF7BEFF10B010BD96
:101DB0000D48016841F00101016041680B4A114082
:101DC000416001680A4A11400160016821F48021E4
:101DD0000160416821F4FE0141604FF41F01816000
:101DE0000449C00308607047001002400000FFF87B
:101DF000FFFFF6FE08ED00E0F0B502681C4B1D4D3C
:101E00001D4E1E4F1E4C4FF0804C984209D0A042F0
:101E100007D0604505D0A84203D0B04201D0B842F7
:101E200004D122F0700E4A6842EA0E02984209D0AC
:101E3000A04207D0604505D0A84203D0B04201D0EF
:101E4000B84203D122F44075CA682A4322F08005C3
:101E50004A692A4302608A68C2620A6882629842BA
:101E600001D0A04201D10969016301214161F0BDA6
:101E7000002C01400004004000080040000C00401D
:101E80000034014010B50123046A8B409C43046276
:101E9000036A8A401343036210BD0000F0B5026A72
:101EA00022F001020262036A42688469124E24F041
:101EB00073050C682C4323F002058B682B430D4DF2
:101EC000A84201D0B04205D123F00807CB683B43BC
:101ED00023F00403A84201D0B04205D14D6922F499
:101EE000407215438A692A434260846149684163AC
:101EF0000362F0BD002C014000340140F0B5026ADD
:101F000022F010020262026A436884690D6824F4B8
:101F1000E64444EA05248D6822F0200242EA0512D4
:101F20000F4D104EA84201D0B04206D1CF6822F02A
:101F3000800242EA071222F04002A84201D0B042D9
:101F400007D14D6923F4406343EA85038D6943EA71
:101F5000850343608461496881630262F0BD0000CB
:101F6000002C014000340140F0B5026A22F4807276
:101F70000262026A4368C46922F4007224F07305A5
:101F80000C68124E2C438D6842EA05220E4DA84281
:101F900001D0B04206D1CF6822F4006242EA0722A3
:101FA00022F48062A84201D0B04207D14D6923F4E7
:101FB000405343EA05138D6943EA05134360C46146
:101FC0004968C1630262F0BD002C01400034014049
:101FD00030B5026A22F480520262046A4268C36920
:101FE0000D6823F4E64343EA05238D6824F4005486
:101FF00044EA0534084DA84202D0084DA84204D155
:102000004D6922F4804242EA85124260C361496808
:102010000164046230BD0000002C01400034014026
:1020200010B5406A0021C185C184FFF725FA10BDB3
:102030000168CA6822F49072CA6001684A6922F095
:1020400001024A61202180F83A10704710B590F8DB
:102050003A10222901D0022010BD8168B1F5805FBD
:1020600011D00169002901681FD0496801F07F0380
:10207000816A4A1C82620B70C18D491E0904090CD9
:10208000C18518D02BE00269816A002A0268526873
:1020900005D0D2B20A80816A491C8162ECE7C2F3A2
:1020A00008020A80816A891CF7E74A68816A4B1C2A
:1020B00083620A70E0E70168CA6822F02002CA6001
:1020C0000168CA6822F48072CA6001684A6922F015
:1020D00001024A61202180F83A10FFF70BFB002033
:1020E00010BD00002DE9F041044600680169E26876
:1020F00021F44051114301612169A06808436169DD
:1021000008432168CA6841F20C639A430243CA60DB
:1021100020684169A26921F44071114341614C4931
:1021200020686425322688423CD1FEF7EFFE00EBA2
:10213000C00101EB001061688900B0FBF1F7FEF708
:10214000E5FE00EBC00101EB00106168B0468900BC
:10215000B0FBF1F0B0FBF5F06FF01801484307EB6E
:10216000800106EB0110B0FBF5F000F0F006FEF781
:10217000CDFE00EBC00101EB001061688900B0FBEF
:10218000F1F0B0FBF5F006EB0016FEF7BFFE00EB3A
:10219000C00101EB001061688900B0FBF1F7FEF7A8
:1021A000B5FE3BE0FEF7A2FE00EBC00101EB001024
:1021B00061688900B0FBF1F7FEF798FE00EBC00103
:1021C00001EB00106168B0468900B0FBF1F0B0FB94
:1021D000F5F06FF01801484307EB800106EB0110A2
:1021E000B0FBF5F000F0F006FEF780FE00EBC0015A
:1021F00001EB001061688900B0FBF1F0B0FBF5F075
:1022000006EB0016FEF772FE00EBC00101EB0010BA
:1022100061688900B0FBF1F7FEF768FE00EBC001D2
:1022200001EB001061688900B0FBF1F0B0FBF5F044
:102230006FF01801484307EB800108EB0110B0FB79
:10224000F5F0216800F00F0030448860BDE8F081AF
:102250000038014090F83910212901D00220704740
:102260008168B1F5805F016A0BD04A1C0262026886
:1022700009785160C18C491E0904090CC1840ED033
:1022800017E009880268C1F308015160016900295B
:10229000016A02D0491C0162ECE7891CFBE7016876
:1022A000CA6822F08002CA600068C16841F040013B
:1022B000C160002070472DE9F041984617460E4650
:1022C0000446069D1DE0681C1BD02DB1FEF7A8FC3E
:1022D000A0EB0800A84214D92068C16821F4D0718D
:1022E000C1602068416921F001014161202084F82A
:1022F000390084F83A00002084F838000320BDE853
:10230000F0812068006836EA000004D00020B8425E
:10231000D9D00020F3E70120F9E700000148FFF7DA
:10232000ADB80000680000200148FFF7A7B8000022
:10233000A8000020FEE7000070B5044601461FA07B
:10234000FFF7F3FC4FF47A752846FEF759FB01229C
:1023500070211C48FEF75FFC2846FEF751FB214622
:1023600016A0FFF7E2FC2846FEF74AFB214616A01E
:10237000FFF7DBFC2846FEF743FB214616A0FFF7DC
:10238000D4FC2846FEF73CFB214616A0FFF7CDFC07
:1023900040F6B830FEF734FB21461AA0FFF7C5FC23
:1023A0006D002846FEF72CFB214616A0FFF7BDFC6A
:1023B0002846BDE87040FEF723BB000041540D0ADB
:1023C000000000000008014041542B43574D4F448A
:1023D000453D310D0A00000041542B5253540D0A63
:1023E0000000000041542B43574A41503D224544D0
:1023F000433230222C223132333435363738220DF5
:102400000A00000041542B43495053544152543D5B
:1024100022544350222C223139322E3136382E317B
:102420002E313234222C32303030300D0A00000090
:102430000FB4084B10B504A902AA039800F098F84D
:10244000044602A9002000F03DF9204610BC5DF8CA
:1024500014FB0000C5260008490050EAC12018BF3F
:1024600004204A0D18BF40F0010040F2FF72B2EBA9
:10247000515F08BF40F00200012808BF05207047E7
:102480002DE9F0414F1E00EBC7010446D1E90001E0
:1024900015461E4637F006020DD02A463346FDF794
:1024A00033FF7F1E04EBC703D3E90023FDF785FE4E
:1024B00037F00602F1D1022F25D0042F13D0062FBA
:1024C00018BFBDE8F0812A463346FDF71DFFD4E969
:1024D0000A23FDF772FE2A463346FDF715FFD4E9BD
:1024E0000823FDF76AFE2A463346FDF70DFFD4E9BF
:1024F0000623FDF762FE2A463346FDF705FFD4E9C1
:102500000423FDF75AFE2A463346FDF7FDFED4E9C3
:102510000223FDF752FE2A463346FDF7F5FED4E9C5
:102520000023BDE8F041FDF748BE0122FDF7CDBF15
:10253000FDF743BE024A00201107FDF7C6BF0000A9
:1025400001FDFFFF02E008C8121F08C1002AFAD1EE
:1025500070477047002001E001C1121F002AFBD123
:1025600070470000014908607047000064000020C7
:102570002DE9FF4F89B09B460446002506E025283B
:102580000BD05A460B999047641C6D1C207800288C
:10259000F5D10DB02846BDE8F08F0027B8460122DE
:1025A000474900E0074314F8013F203B02FA03F0DB
:1025B0000842F7D120782E2819D114F8010F47F0DE
:1025C00004072A280ED06FF02F022078A0F13001E6
:1025D00009290CD808EB880102EB410100EB010846
:1025E000641CF2E70A98641C50F8048B0A90207867
:1025F0000028CED0642808D0692806D075281ED0BF
:102600005A460B9990476D1C58E00A994FF00A09F9
:1026100001C90A91002802DA40422D2102E0390561
:1026200004D52B218DF82010012103E0F90704D0F7
:102630002021F7E78A4608AE0DE00021FAE70A9963
:102640004FF00A0901C90A91F7E74946FDF7F6FF7D
:10265000303106F8011D0028F7D1ADEB060000F17E
:102660002009780701D44FF00108C84502DDA8EB26
:10267000090000E000208046002706E008A85A462E
:10268000C05D0B9990476D1C7F1C5745F6DB04E03D
:1026900030205A460B9990476D1CB8F10001A8F103
:1026A0000108F5DC05E016F8010B5A460B99904736
:1026B0006D1CB9F10001A9F10109F4DC641C65E7A6
:1026C000092801000A68531C0B6010707047000055
:1026D00070B50D4D2C68641C2C600C4D04EB840609
:1026E00045F8260005EB8600051D85E80E0001EB88
:1026F000410303EBC103064901EB031151F82230FA
:10270000036141F8224070BD6000002028020020D3
:10271000C8110020F0B51C4615460E46074600F0CD
:1027200053FC0E494FF47C7204E0401C904201DBE4
:10273000A0F2EF3001EB00131B685B1CF5D101EB3D
:1027400000102A46C0E90254C0E9007631463846F6
:10275000BDE8F0400123FFF7BBBF000008300020B8
:1027600070B5194EFDF7CAFD04460D460022174B01
:10277000FDF70EFF07D20022334620462946FDF71B
:102780001CFD04460D460022114B20462946FDF74C
:1027900017FF07D20022334620462946FDF7AEFD3B
:1027A00004460D460022134620462946FDF7F0FE5A
:1027B0002046294604D2FDF71BFF80F0004070BD83
:1027C000BDE87040FDF714BF00807640008066C011
:1027D000008066402DE9F84F04460D4621F0004088
:1027E00000917349814211DC7249884201DC06D1B3
:1027F0002CB120462946BDE8F84FFFF796BE6E483B
:10280000002DCCBF6D496E49BDE8F88F6D498142FE
:1028100011DD6D498142D8BF4FF0FF366DDD204696
:102820002946FFF719FE042808BFFFF783FE20465C
:102830002946BDE8F88F6549654F25F0004581427E
:1028400033DD6449814219DD002632464FF0804372
:1028500020462946FDF7B1FC80468A4601222046E3
:102860002946FDF732FE00223B46FDF747FD424672
:102870005346FDF7BBFD04460D463EE0012600220F
:10288000BA463B4620462946FDF797FC80460F4650
:102890000022534620462946FDF730FD42463B467E
:1028A000FDF7A4FD04460D4627E04B4981421BDDA0
:1028B000DFF828A102260022534620462946FDF7CC
:1028C00023FD00223B46FDF778FC80460F460022A0
:1028D000534620462946FDF711FD42463B46FDF78B
:1028E00085FD04460D4608E0032622462B460020BF
:1028F0003B49FDF77BFD04460D4622462B4610461C
:102900001946FDF701FD8B46824602460B46FDF750
:10291000FBFC07460246334888460B4606217844AE
:10292000FFF7AEFD52465B46FDF7EEFC82462E48B1
:102930008B463A46434605217844FFF7A1FD3A46C7
:102940004346FDF7E1FC02460B46002E5046594631
:102950000CDAFDF732FC22462B46FDF7D5FC01B020
:1029600022462B46BDE8F04FFDF7CBBCFDF725FC1A
:1029700022462B46FDF7C8FC1C4A7A4402EBC603EC
:10298000D3E90023FDF7BAFC22462B46FDF7B6FC3F
:10299000174A7A4402EBC603D3E90023FDF7B1FCE2
:1029A000009A002AB8BF81F00041BDE8F88F00000E
:1029B000000010440000F07F182D4454FB21F93F23
:1029C000FB21F9BF0000DC3F0000203E0000F33F88
:1029D0000000F03F0000E63F008003400000F83FA9
:1029E0000000F0BFC6310000843100002231000039
:1029F000EA3000002DE9F04D9446CCF1000423F0BC
:102A000000464CEA0404524F46EAD4749A4688467B
:102A100021F00042BC4206D8454240EA050442EAA1
:102A2000D474BC4204D9BDE8F04D6246FFF780BDC6
:102A3000AAF14055A5F17F6555EA0C040BD002249C
:102A400004EAAA74434DDFF810E144EAD87452EA6C
:102A5000000B04D00CE0BDE8F04DFFF7BBBE002C2E
:102A600014BF012CBDE8F08D022C30D0032C32D0E5
:102A700056EA0C0B0AD0BE4220D1BA4209D126F048
:102A8000804622F080423346114617E000291ADBC7
:102A900025E0DFF8C8B0FB44002C04BFDBE90001EF
:102AA000BDE8F08D012C02BFDBE9000181F000419F
:102AB000BDE8F08D022C0AD0032C0CD0BA4212D102
:102AC000B8F1000F0BDA23482549BDE8F08D284600
:102AD0002449BDE8F08D28467146BDE8F08D1D48BB
:102AE0002149BDE8F08D921B12153C2AC4BF19483C
:102AF0001D490EDCBAF1000FBEBF12F13C0F0020E1
:102B0000014606DB6246FDF771FC21F00041FFF74C
:102B100061FE002C08BFBDE8F08D012C04BF81F0E0
:102B20000041BDE8F08D114A114B022C07D0FDF792
:102B3000E5FB2A46BDE8F04D0A4BFDF7DFBBFDF78C
:102B4000DDFB2A46BDE8F04D064BFDF7DABB000081
:102B50000000F07F182D4454FB2109C07E30000096
:102B6000FB21F9BFFB210940FB21F93F075C14332E
:102B700026A6A13C1349886808281EDB12488A68EB
:102B8000024412F8082C2B2A17D18A68024412F842
:102B9000072C492A11D18A68024412F8062C502ABF
:102BA0000BD18A68024412F8052C442A05D18968A1
:102BB000084410F8040C2C2801D000207047012094
:102BC00070470000100000203001002010B50023E5
:102BD0000F4C0EE0184602F073FC48B10D4850F857
:102BE000230020630B48143050F82300606310BDAD
:102BF0005B1CE06A8342EDDB00F0E6F8054928390A
:102C000051F8201021630349143951F82000EDE7F1
:102C100010000020A00100204FF0FF3243F6F061C9
:102C20000148FDF7B1BA00000830002046214843B2
:102C300000E0401E0028FCDC7047000070B5472013
:102C4000FEF740FFA0F10E011C4C1D4D13380A2960
:102C500000D80020FDF759FC22686368FDF7ADFA43
:102C6000206061600022206813466168FDF790FCD7
:102C700007D2206800222B466168FDF79EFA20608B
:102C80006160206800222B466168FDF799FC07D23D
:102C9000206800222B466168FDF730FB20606160F0
:102CA000084B206800226168FDF72EFB00222B46AE
:102CB000FDF79CFBBDE87040FDF79ABC5800002072
:102CC0003699214100807640F0B53D4801788A0967
:102CD0003C490A708A78002A827855D04379D20913
:102CE000CC684C6143EA0222CA6082788379C2F3DD
:102CF00080120C698C6143EA02220A618278C379EE
:102D0000C2F3401243EA0222CA61827890F8083086
:102D1000C2F3001243EA02220A62CA68CA600A6960
:102D20000A61427A9208CA62417A01F00302254997
:102D300041310A70827A92094A70827AC2F3011292
:102D40008A70827AC2F38102CA70827A1C4B02F0C6
:102D500003020A710021903303F1140403F12805E2
:102D600003F13C0600EB8102D77A43F82170177B10
:102D700044F82170577B45F82170927B46F821205A
:102D8000491C0529EEDBF0BDC379C2F34012CC68C3
:102D90004C6143EA0222CA608278037AC2F30012CD
:102DA0000C698C6143EA02220A6182784379D20974
:102DB00043EA0222CA6182788379C2F38012A9E7CA
:102DC000E8000020100000202DE9F047114EDFF848
:102DD000488000244FF47A7506F14107A8F11409E0
:102DE00012E0385D78B958F824003169F268091AA0
:102DF00059F82400101A02F07BFDFDF797FBA8425A
:102E000001DAA2460546641CF06A8442E9DB5046BA
:102E1000BDE8F087100000208C0100202DE9FF4F55
:102E200083B00024601E174601901E463F224FF4D7
:102E300072614C48FDF7A8F94B4D02AAA5F1A00319
:102E400031463846009500F0D1F80022DFF814E151
:102E5000A5F1A00902981BE059F82230002703EBE6
:102E6000430101EBC30655F822100EEBC60C2CF8FB
:102E70001170DFF8F8C001270CEB86068F550CF5B2
:102E80000D6646F8223006F57A6343F82210521C8C
:102E90008242E1DB01465EE0334A354BA032491EF7
:102EA00052F8242053F82430641CB4F57A7F00DBF8
:102EB000002402EB420505EBC2062E4D05EB06157C
:102EC00055F8235040E000BFDFF8AC8005EB8507E4
:102ED00058F8275008EB870705EB450CA9460CEB83
:102EE000C50B0EEBC6050EEBCB0A35F81350D7F821
:102EF0000C803AF812C04544AC4524DD2AF8125043
:102F0000DDF80CC0E14503D1049DAA4200D1019334
:102F1000164D05EB8B0515F802C0BCF1000F12D160
:102F20004FF0010C05F802C0DFF83CC0104D0CF169
:102F3000A00C491C4CF8209045F82020401CB0F50E
:102F40007A7F00DB00203D69002DBDD1074D0022B6
:102F500005EB8605EA5400299EDC019807B0BDE820
:102F6000F08F0000F86E002048860020187E0020B8
:102F700088960020C811002028020020F0B51646CF
:102F80000D46044600F020F80E494FF47C7704E02B
:102F9000401CB84201DBA0F2EF3001EB00121368D5
:102FA000B3F1FF3F0BD0A342F2D15368AB42EFD154
:102FB0009268B242ECD101EB0010C068F0BD4FF056
:102FC000FF30F0BD08300020532300EBC010594300
:102FD00000EB810002EB4201C1EB4211084440F2D8
:102FE000EF3190FBF1F201FB120070472DE9FF4F2A
:102FF00086B00027139E17604FF050084FF0AF0ABD
:103000004FF0C3093620CDE90489CDE9028ACDE924
:10301000000A14460246DDE906011D464B4602F051
:10302000C1F840B1206845F82070206846F820704B
:103030002068401C20604146CDE9007ACDE9021AA3
:10304000CDE90419DDE90601D046C323002202F0D0
:10305000A9F848B1206845F820702168202046F87A
:1030600021002068401C20605022C320CDE90402CA
:103070001421CDE90081CDE90201DDE90601134605
:10308000AF2202F08FF850B12168012045F82100ED
:1030900021680A2046F821002068401C20604FF477
:1030A000877A14220021CDE904A2CDE902A1CDE95D
:1030B0000081DDE906011346AF2202F073F850B13A
:1030C00021681F2045F8210021681E2046F82100B4
:1030D0002068401C206002AFE123472240F201112A
:1030E0007A2087E80F0040F20D116120CDE9000140
:1030F000DDE90601F5233B2202F054F850B12168C6
:10310000042045F821002168052046F821002068A8
:10311000401C2060EB20C827CDF814A00290CDE918
:103120000307BA2000900190DDE9060153466422AE
:1031300002F038F850B12168052045F821002168D7
:10314000062046F821002068401C2060A520BE22F1
:10315000CDE90202AF21CDE90401C8277D20CDE9E8
:103160000007DDE90601B9236E2202F01BF850B119
:103170002168172045F821002168132046F8210016
:103180002068401C2060C12003ABB8228F21029030
:1031900083E80700FA217D20CDE90001DDE9060181
:1031A000DC23642201F0FEFF4FF00F0948B12168D3
:1031B000062045F82100216846F821902068401C2F
:1031C000206002AFF9234322E721442087E80F0063
:1031D0004FF0D50B6E20CDE9000BDDE90601E223AF
:1031E0007C2201F0DFFF48B12168042045F82190DE
:1031F000216846F821002068401C206060201A22C7
:103200004C211C27CDE90420CDE902715E205D210F
:10321000CDE90010DDE906016C23502201F0C2FF68
:103220004FF0070840B1216845F82180206846F832
:1032300020702068401C20600DF1080A5F23E32203
:103240005321D5208AE80F00A6217F20CDE9000177
:10325000DDE90601B5238F2201F0A4FF4FF0090B31
:1032600048B12168082045F82100216846F821B0BE
:103270002068401C20604FF487705022CDE9020284
:103280005F21CDE904015421C320CDE90001DDE92E
:1032900006016C23D52201F085FF48B12168112079
:1032A00045F821B0216846F821002068401C2060C4
:1032B000FA2055224FF0140ACDE90402CDE9020AA2
:1032C000DE20CDE9000ADDE906015023E12201F00C
:1032D00069FF48B12168152045F821A0216846F80A
:1032E00021002068401C20604FF487707821CDE9D0
:1032F000020104900590FA20CDE90001DDE9060104
:10330000CD231A4601F04EFF50B121680D2045F83B
:1033100021002168102046F821002068401C206010
:1033200087225000CDE904024B21CDE90201FA20A9
:1033300013460246CDE90001DDE9060101F032FF46
:1033400050B12168102045F821002168112046F86D
:1033500021002068401C206002ABFA214B22002093
:1033600083E807004FF487730591CDE90003DDE999
:10337000060101F017FF50B12168192045F821001E
:1033800021681A2046F821002068401C2060B523DF
:103390008F217F22C420CDE90213CDE904029B21B5
:1033A000CDE90010DDE906018C23D22201F0FAFEFE
:1033B00050B12168122045F821002168132046F8F9
:1033C00021002068401C2060FA202822CDE9020A52
:1033D000CDE90402AF20CDE9000A13460246DDE93B
:1033E000060101F0DFFE50B12168152045F82100EB
:1033F00021680A2046F821002068401C2060D8215E
:1034000096200291CDE903100590C921E420CDE971
:103410000001DDE906017D23A72201F0C3FE18218A
:1034200048B1206845F8201022680D2046F8220097
:103430002068401C206002A94FF04D0C2723612218
:103440002F2081E80D106E211820CDE90001DDE963
:10345000060162230B2201F0A5FE48B121681B2062
:1034600045F82100206846F820702068401C206044
:10347000A6222820CDE90402FA21CDE90201132079
:1034800013460246CDE90001DDE9060101F08AFE9E
:1034900050B12168022045F821002168032046F838
:1034A00021002068401C2060C22138225020CDE934
:1034B0000210CDE90412AE21CDE9001013460A46F0
:1034C000DDE9060101F06EFE48B12168012045F8F2
:1034D0002100216846F821002068401C2060C3209C
:1034E0001422CDE904022921CDE902017F20CDE992
:1034F0000001DDE906011623792201F053FE50B1E7
:1035000021680A2045F821002168242046F821007E
:103510002068401C20600DF1080C292386223621EA
:1035200066208CE80F004FF0270A5D21CDE9001AD4
:10353000DDE9060115237C2201F034FE50B121683B
:10354000242045F8210021680B2046F8210020683E
:10355000401C2060AF2000222821CDE90210CDE9D7
:103560000420C320CDE900100346DDE9060101F087
:1035700019FE50B12168022045F821002168202061
:1035800046F821002068401C2060A22003AB552291
:103590005421029083E80700C8217C20CDE9000176
:1035A000DDE906017623322201F0FCFD48B12168F5
:1035B000172045F82100216846F821802068401C2A
:1035C00020600DF1080C9423AE229821BF208CE8D6
:1035D0000F00C621C320CDE90001DDE90601D1239A
:1035E000AB2201F0DFFD50B12168062045F8210033
:1035F00021680E2046F821002068401C2060CB2066
:1036000003AB91229021029083E80700DF21B320D1
:10361000CDE90001DDE90601AC237A2201F0C2FD0B
:1036200050B12168062045F821002168082046F89D
:1036300021002068401C20600DF1080C52234E220E
:10364000642159208CE80F0077212C20CDE900015E
:10365000DDE9060165231F2201F0A4FD48B12168C0
:10366000162045F82180216846F821002068401C7A
:1036700020600DF1080C66233722872126208CE874
:103680000F0083211220CDE90001DDE906015F234F
:10369000252201F087FD50B12168162045F8210050
:1036A0002168252046F821002068401C20600DF18B
:1036B0000C0C7A222B21C1208CE80700142128232E
:1036C0000091CDE901030A46DDE90601782301F006
:1036D00069FD50B12168252045F8210021680220AC
:1036E00046F821002068401C20600DF1080C0123E1
:1036F000752214217C208CE80F0026215A20CDE968
:103700000001DDE9060119234E2201F04BFD50B105
:103710002168222045F821002168232046F8210055
:103720002068401C206000207322BF21CDE90420C6
:10373000CDE902101520CDE900100346DDE90601B0
:103740007A2201F02FFD50B12168232045F8210095
:1037500021681F2046F821002068401C20600DF1E0
:10376000080C4C234FF48072592140F20D108CE864
:103770000F009721C920CDE90001DDE906018A2368
:10378000B82201F00FFD50B12168112045F8210049
:103790002168122046F821002068401C206000208B
:1037A000B022C321CDE90210CDE904202820CDE9C3
:1037B00000100346DDE9060101F0F4FC50B1216878
:1037C0000A2045F8210021681F2046F821002068C2
:1037D000401C20600DF1080C6F238A22C821E620CE
:1037E0008CE80F00D82000900190DDE906017D23D0
:1037F0001A4601F0D7FC50B121680C2045F8210091
:1038000021680D2046F821002068401C20600DF141
:10381000080C9723C922ED2172208CE80F00DF21CC
:103820006520CDE90001DDE906018A23BA2201F015
:10383000B9FC48B121680E2045F82100216846F8FE
:1038400021902068401C20600DF1080CD6236B22CB
:10385000DF217A208CE80F004FF4877173204B1E14
:10386000CDE90001DDE90601612201F09BFC48B1D0
:103870002168052045F82190216846F8210020683C
:10388000401C20600DF1080C8B23D522ED21722005
:103890008CE80F00DF216420CDE90001DDE906019D
:1038A0007D23C62201F07EFC48B12168122045F834
:1038B0002100216846F821902068401C20600DF10D
:1038C000080956235322BC21B92089E80F00CF21D3
:1038D000A420CDE90001DDE906016323462201F0C1
:1038E00061FC48B12168132045F82100216846F8A1
:1038F00021802068401C2060AF2000222821CDE9D3
:103900000210CDE90420C320CDE900100346DDE913
:10391000060101F047FC50B12168202045F8210044
:103920002168022046F821002068401C2060002009
:10393000B022C321CDE90210CDE904202820CDE931
:1039400000100346DDE9060101F02CFC50B12168AE
:103950001F2045F8210021680A2046F82100206830
:10396000401C2060C3221420CDE90402AF21CDE920
:103970000201502013460246CDE90001DDE90601AF
:1039800001F010FC50B12168002045F821002168A9
:10399000022046F821002068401C20600DF1080933
:1039A000702300227821142089E80F00C3210B46E0
:1039B000CDE90001DDE9060101F0F4FB50B1216819
:1039C000202045F821002168262046F821002068A3
:1039D000401C20600DF1080957230E22642121208C
:1039E00089E80F0085210F20CDE90001DDE90601FE
:1039F0007523002201F0D6FB50B12168262045F83E
:103A0000210021681B2046F821002068401C20600E
:103A10000020AF22C321CDE90210CDE904205020BF
:103A2000CDE900100346DDE9060101F0BBFB50B112
:103A30002168012045F8210021681F2046F8210057
:103A40002068401C206002AAE6214FF0140955208E
:103A500082E803020591FA210B46CDE90001DDE978
:103A600006014A4601F09EFB50B12168032045F84B
:103A700021002168042046F821002068401C2060B5
:103A80000DF1080CAC237A22BA2189208CE80F00B2
:103A90004220FA210246CDE90001DDE90601E323D7
:103AA00001F080FB50B12168042045F82100216815
:103AB000172046F821002068401C20600DF1080CFA
:103AC0005223D5226021E3208CE80F00C6217D20FF
:103AD000CDE90001DDE90601B723712201F062FBA7
:103AE00048B12168172045F82100216846F821B027
:103AF0002068401C20600DF1080C8323A4228F2134
:103B0000B1208CE80F00C6217D20CDE90001DDE960
:103B10000601B723712201F045FB50B1216817203F
:103B200045F821002168182046F821002068401C33
:103B30002060552003AB63224621029083E80700F2
:103B4000C321C420CDE90001DDE90601D323B6225B
:103B500001F028FB48B12168062045F821002168C2
:103B600046F821802068401C20600DF1080CD82305
:103B70006D22E2217E208CE80F004FF487714D20EA
:103B8000CDE90001DDE906014FF48373412201F024
:103B900009FB50B121680F2045F821002168192048
:103BA00046F821002068401C20600DF1080C7423A9
:103BB00058223E2162208CE80F003D214F20CDE9A4
:103BC0000001DDE906016323462201F0EBFA48B16A
:103BD00021681D2045F82180216846F821002068D1
:103BE000401C2060DA20C821CDE903100590B421E3
:103BF000E62296200091CDE90102DDE90601A52328
:103C00001A4601F0CFFA50B121680E2045F8210084
:103C100021680D2046F821002068401C2060962174
:103C2000029189207B22CDE903200590392154207F
:103C3000CDE90001DDE9060148231A4601F0B2FA98
:103C400050B121681D2045F8210021680C2046F85C
:103C500021002068401C20604620E321CDE90301BB
:103C60000590D721FA226C200091CDE90102DDE90F
:103C700006015C23CB2201F095FA40B1216845F89A
:103C800021B0216846F821902068401C20600DF189
:103C9000080C0D234E2221214B208CE80F003121EE
:103CA0006F20CDE90001DDE906011A23702201F041
:103CB00079FA50B121680B2045F8210021682220B3
:103CC00046F821002068401C20600DF1080C5323A9
:103CD000D5226221E2208CE80F009521A920CDE9B0
:103CE0000001DDE906018323812201F05BFA48B17E
:103CF00021680C2045F82100216846F821B0206891
:103D0000401C2060B420A421CDE9031005908C2133
:103D1000C32271200091CDE90102DDE90601802373
:103D20001A4601F03FFA50B121680C2045F82100F5
:103D300021680E2046F821002068401C20604620A3
:103D4000E321CDE9030188210590FA224FF4877021
:103D50008DE807000B46DDE9060101F023FA48B1C2
:103D60002168102045F82100216846F8219020683C
:103D7000401C2060D321A8200291CDE903100590BA
:103D8000B721F020CDE90001DDE906017E23C5223F
:103D900001F008FA50B12168122045F8210021688D
:103DA0000D2046F821002068401C2060A0219622AA
:103DB0008220CDE90210CDE90412C821CDE900101E
:103DC00013460A46DDE9060101F0ECF950B121681D
:103DD000122045F821002168182046F821002068AB
:103DE000401C20600DF108095223D5226021E320F8
:103DF00089E80F009E21A420CDE90001DDE906013C
:103E00009023972201F0CEF948B12168182045F897
:103E10002100216846F821B02068401C20600DF187
:103E200008097C239722AD21992089E80F00AE2153
:103E30008920CDE90001DDE906017923872201F01F
:103E4000B1F950B121680C2045F821002168082003
:103E500046F821002068401C20604FF0530B512190
:103E6000A422CDF814B0CDE903219F23B2219120E3
:103E70008DE80B00DDE906016223432201F092F98F
:103E800048B12168082045F82100216846F82180C2
:103E90002068401C20600DF10808AD239B22BA2148
:103EA000AA2088E80F00ED217220CDE90001DDE9AC
:103EB0000601DF23642201F075F950B12168132057
:103EC00045F8210021680F2046F821002068401C99
:103ED000206002ABAF210022142083E807004FF4DA
:103EE00087780591CDE90008DDE90601434601F038
:103EF00059F950B121681A2045F821002168202085
:103F000046F821002068401C20605F20F922CDE99E
:103F10000420CDE902800020CDE900800346DDE9E0
:103F20000601F82201F03EF950B121681E2045F843
:103F300021002168112046F821002068401C2060E3
:103F4000442140F20D12CDF81480CDE90321552112
:103F50005C23E5200091CDE90103DDE90601E623BC
:103F6000432201F01FF950B12168042045F82100D7
:103F70002168192046F821002068401C20604FF07D
:103F8000210901AA2E236221CDF8009082E80A08B7
:103F900032204FF01108CDE90480DDE90601382315
:103FA000002201F0FFF840B1206845F82070216838
:103FB00046F821902068401C206032201121CDE974
:103FC000041001A82E236221CDF8009080E80A0891
:103FD000DDE906013823002201F0E4F840B1216850
:103FE00045F82190206846F820702068401C206029
:103FF0004FF000084FF0290B1521CDF808B0CDE99E
:10400000031842201421CDF81480CDE90010DDE919
:1040100006014123424601F0C5F840B1216845F848
:104020002190216846F821A02068401C20601521BD
:10403000CDE903181421CDF81480292242200091E3
:10404000CDE90102DDE906014123002201F0AAF8D1
:1040500040B1216845F821A0216846F821902068E8
:10406000401C206049211622CDF81480CDE903219F
:104070001A2145234FF01D0B0091CDE901B3DDE975
:1040800006010023142201F08DF848B12168282090
:1040900045F821A0216846F821002068401C2060D6
:1040A00049211622CDF81480CDE903211A21452398
:1040B0000091CDE901B3DDE906010023142201F0EE
:1040C00071F848B12168282045F82100216846F898
:1040D00021A02068401C206000203B21CDE9041075
:1040E000D8464FF0640B2A205421CDE90010CDE9C9
:1040F00002B8DDE906011423362201F053F850B16D
:104100002168282045F821002168222046F8210056
:104110002068401C2060CDE902B800213B20CDE999
:1041200004014FF02A0B5421CDE9001BDDE9060103
:104130001423362201F036F850B12168222045F8C8
:1041400021002168282046F821002068401C2060BA
:1041500015204F21CDE90301059058215E22502002
:104160000091CDE90102DDE906014E23472201F06D
:1041700019F848B12168222045F82180216846F8C5
:1041800021002068401C206015204F21CDE903014B
:10419000059058215E2250200091CDE90102DDE911
:1041A00006014E23472200F0FDFF48B1216822207E
:1041B00045F82100216846F821802068401C2060D5
:1041C00052221E214F20CDE904123C235821CDE973
:1041D0000203CDE90010DDE906015F23202200F093
:1041E000E1FF40B1216845F82180206846F8207041
:1041F0002068401C206052211E224F20CDE904215E
:104200003C235821CDE90203CDE90010DDE9060188
:104210005F23202200F0C6FF40B1206845F82070DF
:10422000216846F821802068401C20600DF1080CB0
:1042300037230022342113208CE80F006621202030
:10424000CDE90001DDE9060164230A2200F0AAFF9E
:1042500048B121681B2045F82100216846F82190CB
:104260002068401C20600DF108091F2367222F21C0
:10427000722089E80F0051215520CDE90001DDE9C8
:1042800006014823452200F08DFF48B121680B202C
:1042900045F82100216846F821802068401C2060F4
:1042A0000DF108093C234D2249215B2089E80F00CC
:1042B00074212D20CDE90001DDE906016C231C22CB
:1042C00000F070FF48B12168162045F82180216870
:1042D00046F821002068401C20600DF108083C23AE
:1042E00036224521432088E80F005F204FF029083F
:1042F000CDE90080DDE9060158231C2200F052FFC1
:1043000040B1206845F82070216846F821B0206847
:10431000401C206021221820CDE904024FF04909F9
:104320004427522130208DE88302DDE906013A233B
:10433000122200F037FF48B121682B2045F821B048
:10434000216846F821002068401C206021201821A7
:10435000CDE9041030210DF1040C522000918CE8BD
:104360008102DDE906013A23122200F01BFF48B169
:1043700021682B2045F82100216846F821B02068EB
:10438000401C206013210DF1040C4D2237200091B8
:104390008CE805044FF015093527CDE90479DDE9EE
:1043A00006011A23202200F0FDFE48B121682B20CF
:1043B00045F82180216846F821002068401C2060D3
:1043C0004D22372113208DE80704CDE90479DDE97A
:1043D00006011A23202200F0E5FE48B121682B20B7
:1043E00045F82100216846F821802068401C2060A3
:1043F0004FF019093F21CDE904194FF02E0A45214C
:104400000DF1040C52274A2000918CE88104DDE96B
:1044100006015123524600F0C5FE40B1216845F81F
:104420002180216846F821B02068401C2060494660
:104430004FF03F09CDE9049145210DF1040C4A20CC
:1044400000918CE88104DDE9060151232E2200F061
:10445000A9FE40B1216845F821B0216846F82180C5
:104460002068401C206002AAE52350214FF486708A
:1044700082E80B026621CDE90001DDE9060149234E
:10448000DF2200F08FFE00280AD02168112045F8B5
:1044900021002168142046F821002068401C20607B
:1044A0000AB0BDE8F08F00004FF4F2510148FBF76D
:1044B00072BE0000C81100202DE9F05FFEF7ACFBD2
:1044C0000221002001F0A0F8034600210222084644
:1044D000FEF720F90221002001F096F803460021A2
:1044E00020220846FEF716F900215A2001F08CF828
:1044F0000346032202210020FEF70CF96FF0590653
:104500000021304601F080F80346262220210020B9
:10451000FEF700F90221002001F076F803460121A0
:104520000A220846FEF7F6F80221002001F06CF896
:10453000034601211F220846FEF7ECF800215A200D
:1045400001F062F8034624220A210120FEF7E2F876
:104550000021304601F058F803461E221F21012099
:10456000FEF7D8F80021304601F04EF803461E222F
:104570001F210A20FEF7CEF800210F2001F044F899
:1045800003460B2224210A20FEF7C4F800215A20FA
:1045900001F03AF803460C221D210B20FEF7BAF871
:1045A00002216FF0090001F02FF8034616221D21A9
:1045B0000B20FEF7AFF86FF01D040221204601F03A
:1045C00023F803461C221D210B20FEF7A3F86FF0F1
:1045D00086070221384601F017F8034622221D21E2
:1045E0000B20FEF797F80221872001F00DF8034613
:1045F0001D2222210B20FEF78DF86FF0770B002192
:10460000584601F001F80346232222210B20FEF731
:1046100081F80221002000F0F7FF03462822222122
:104620000B20FEF777F80421002000F0EDFF034691
:1046300010220D210C20FEF76DF80021304600F00D
:10464000E3FF03460F220E210C20FEF763F8002142
:10465000384600F0D9FF0346072208210C20FEF758
:1046600059F875100221284600F0CEFF03461122AA
:1046700009210C20FEF74EF80121002000F0C4FFB4
:104680000346142209210C20FEF744F802210020E1
:1046900000F0BAFF0346112210210D20FEF73AF870
:1046A00002211E2000F0B0FF0346142210210D202D
:1046B000FEF730F80421002000F0A6FF0346102288
:1046C0000D210E20FEF726F80221002000F09CFFAD
:1046D000034619220F210E20FEF71CF80221204666
:1046E00000F092FF034604220F210E20FEF712F87D
:1046F0000421002000F088FF034605220F210E2030
:10470000FEF708F80021284600F07EFF03461A2233
:1047100019210F20FDF7FEFF6FF09508002140469C
:1047200000F072FF0346172204210F20FDF7F2FF6D
:104730000421002000F068FF0346062205210F2017
:10474000FDF7E8FF0021872000F05EFF03461222FC
:1047500011211020FDF7DEFF0021204600F054FF5C
:104760000346152214211020FDF7D4FF0421002058
:1047700000F04AFF03460D2212211120FDF7CAFF67
:104780000121002000F040FF03460F2212211120DA
:10479000FDF7C0FF0221002000F036FF0346132280
:1047A00012211120FDF7B6FF0221284600F02CFF50
:1047B0000346182212211120FDF7ACFF00212846E4
:1047C00000F022FF0346152214211120FDF7A2FF5D
:1047D0000421002000F018FF034610220D211220B2
:1047E000FDF798FF0221002000F00EFF034619227A
:1047F0000F211220FDF78EFF0221204600F004FF5A
:10480000034604220F211220FDF784FF042100201B
:1048100000F0FAFE034605220F211220FDF77AFF71
:104820000021304600F0F0FE03460722132112203B
:10483000FDF770FFB9460021484600F0E5FE03464B
:10484000092218211220FDF765FF0221002000F047
:10485000DBFE034619220F211320FDF75BFF022127
:10486000204600F0D1FE034604220F211320FDF75D
:1048700051FF0421002000F0C7FE034605220F214E
:104880001320FDF747FF0421002000F0BDFE034682
:10489000162207211320FDF73DFF02211E2000F004
:1048A000B3FE03461C2207211320FDF733FF02212C
:1048B000284600F0A9FE03461D2207211320FDF71C
:1048C00029FF02215A2000F09FFE03460422032103
:1048D0000220FDF71FFF0021304600F095FE034641
:1048E000262220210220FDF715FF00215A2000F08A
:1048F0008BFE03460A2215211420FDF70BFF02212F
:10490000304600F081FE03461F220A211520FDF7E4
:1049100001FF0021084600F077FE034624220A2109
:104920001520FDF7F7FE00210F2000F06DFE034675
:10493000022225211620FDF7EDFE0021384600F069
:1049400063FE03460F2213211720FDF7E3FE00212B
:10495000304600F059FE03460D2218211720FDF7BE
:10496000D9FE0421002000F04FFE03461622072145
:104970001720FDF7CFFE02211E2000F045FE034662
:104980001C2207211720FDF7C5FE0221284600F052
:104990003BFE03461D2207211720FDF7BBFE022127
:1049A000284600F031FE0346112209211720FDF7A9
:1049B000B1FE0221002000F027FE03461422092147
:1049C0001720FDF7A7FE0421002000F01DFE03467E
:1049D00010220D211820FDF79DFE0221284600F02F
:1049E00013FE0346112209211820FDF793FE022130
:1049F000002000F009FE0346142209211820FDF7CB
:104A000089FE0021304600F0FFFD034620221A21D6
:104A10001920FDF77FFE0221304600F0F5FD034628
:104A2000022220211A20FDF775FE0021084600F021
:104A3000EBFD0346262220211A20FDF76BFE022102
:104A4000384600F0E1FD034616221C211B20FDF72D
:104A500061FE0221204600F0D7FD03461D221C21E5
:104A60001B20FDF757FE0221782000F0CDFD034604
:104A700021221C211B20FDF74DFE0221002000F009
:104A8000C3FD03462A221C211B20FDF743FE022101
:104A9000404600F0B9FD03461C2221211B20FDF7F2
:104AA00039FE0221204600F0AFFD034627222121D6
:104AB0001B20FDF72FFE0021204600F0A5FD034638
:104AC000252216211C20FDF725FE6700002138460F
:104AD00000F09AFD03460C221D211C20FDF71AFE52
:104AE00002213C2000F090FD034622221D211C20C3
:104AF000FDF710FE0221384600F086FD034627220E
:104B000021211C20FDF706FE02212D2000F07CFD56
:104B1000034629222A211C20FDF7FCFD02216420E6
:104B200000F072FD03462B222A211C20FDF7F2FD26
:104B30000221002000F068FD03460D220C211D20FB
:104B4000FDF7E8FD0221002000F05EFD03460E2285
:104B50000C211D20FDF7DEFD0221284600F054FD4A
:104B6000034608220C211D20FDF7D4FD042100205E
:104B700000F04AFD034609220C211D20FDF7CAFD65
:104B800000210A2000F040FD0346252216211D20A9
:104B9000FDF7C0FD0221502000F036FD034616222D
:104BA0001C211D20FDF7B6FD0221384600F02CFD2A
:104BB000034621221C211D20FDF7ACFD0221C24627
:104BC000404600F021FD03462A221C211D20FDF74E
:104BD000A1FD0021384600F017FD034623222221C3
:104BE0001D20FDF797FD02213C2000F00DFD03463E
:104BF000282222211D20FDF78DFD00212D2000F00F
:104C000003FD0346172204210320FDF783FD022143
:104C1000304600F0F9FC0346192204210320FDF779
:104C200079FD0021204600F0EFFC03460522042117
:104C30000320FDF76FFD0021284600F0E5FC034648
:104C4000122211211E20FDF765FD0221D84658468B
:104C500000F0DAFC0346142211211E20FDF75AFD54
:104C60000021304600F0D0FC034624220A211F20F8
:104C7000FDF750FD0021304600F0C6FC034611222E
:104C80001E211F20FDF746FD0021304600F0BCFC30
:104C90000346032202212020FDF73CFD002120468F
:104CA00000F0B2FC03461B2226212020FDF732FD36
:104CB0000221284600F0A8FC034616221C212120D0
:104CC000FDF728FD0221782000F09EFC03461D22FE
:104CD0001C212120FDF71EFD02213C2000F094FC48
:104CE00003462A221C212120FDF714FD022128461B
:104CF00000F08AFC0346282227212120FDF70AFD27
:104D000000212D2000F080FC03460C221D212220D2
:104D1000FDF700FD02211E2000F076FC034616225E
:104D20001D212220FDF7F6FC0221284600F06CFC34
:104D300003461C221D212220FDF7ECFC00211E2031
:104D400000F062FC03461F2223212220FDF7E2FC33
:104D500002211E2000F058FC034627222821222091
:104D6000FDF7D8FC0221304600F04EFC03460A2233
:104D70001F212320FDF7CEFC0021084600F044FC53
:104D800003461E221F212320FDF7C4FC02210A2016
:104D900000F03AFC03461D220B212420FDF7BAFC4B
:104DA0000221304600F030FC034622220B21242051
:104DB000FDF7B0FC0021084600F026FC0346032264
:104DC00002212520FDF7A6FC0221304600F01CFC44
:104DD0000346202202212520FDF79CFC02216010C1
:104DE00000F012FC03461C221B212620FDF792FC3A
:104DF00002213C2000F008FC034621221B21262032
:104E0000FDF788FC0221642000F0FEFB03461C2213
:104E100021212720FDF77EFC0221284600F0F4FB2B
:104E20000346222228212720FDF774FC0221284670
:104E300000F0EAFB0346132217210420FDF76AFC69
:104E40000221002000F0E0FB034618221721042075
:104E5000FDF760FC0421002000F0D6FB034607228A
:104E600017210420FDF756FC0121002000F0CCFBA7
:104E70000346092217210420FDF74CFC04211E20C3
:104E800000F0C2FB0346062205210420FDF742FC88
:104E90000221384600F0B8FB03461D2222212820BB
:104EA000FDF738FC00213C2000F0AEFB0346232236
:104EB00022212820FDF72EFC02213C2000F0A4FB3B
:104EC0000346212227212820FDF724FC0221284621
:104ED00000F09AFB03461C222A212920FDF71AFC28
:104EE0000221782000F090FB03462A222B21292062
:104EF000FDF710FC02212D2000F086FB0346162250
:104F00001C212A20FDF706FC0221A02000F07CFBDA
:104F100003461D221C212A20FDF7FCFB02213846F6
:104F200000F072FB034621221C212A20FDF7F2FB30
:104F30000221782000F068FB03462B2229212A2039
:104F4000FDF7E8FB02214746404600F05DFB0346C3
:104F500029222B212A20FDF7DDFB0221384600F013
:104F600053FB03462A2229212B20FDF7D3FB0221E4
:104F70006FF0630000F048FB03461C222A212B201F
:104F8000FDF7C8FB0221284600F03EFB03460E2237
:104F900006210520FDF7BEFB0421002000F034FBB4
:104FA00003460F2206210520FDF7B4FB0121002056
:104FB00000F02AFB0346072206210520FDF7AAFB85
:104FC0000221002000F020FB0346082206210520D4
:104FD000FDF7A0FB0021484600F016FB03460D221A
:104FE0000E210620FDF796FB0121002000F00CFBAE
:104FF000034619220F210620FDF78CFB01212046D4
:1050000000F002FB034604220F210620FDF782FB7D
:105010000421002000F0F8FA03461622072106209A
:10502000FDF778FB02211E2000F0EEFA03461C2259
:1050300007210620FDF76EFB6FF04505022128468B
:1050400000F0E2FA03461D2207210620FDF762FB6D
:105050000021304600F0D8FA034609220821062034
:10506000FDF758FB0021084600F0CEFA0346252242
:1050700016210720FDF74EFB0221204600F0C4FA5E
:10508000034621221C210720FDF744FB022138465C
:1050900000F0BAFA03462A221C210720FDF73AFB4A
:1050A0000021384600F0B0FA03460C221D210720EB
:1050B000FDF730FB0221642000F0A6FA03461C2213
:1050C0001D210720FDF726FB0221002000F09CFA9D
:1050D000034622221D210720FDF71CFB042100208E
:1050E00000F092FA0346162207210820FDF712FB72
:1050F00002211E2000F088FA03461C220721082006
:10510000FDF708FB0221284600F07EFA03461D2227
:1051100007210820FDF7FEFA0221204600F074FA6C
:105120000346112209210820FDF7F4FA022100208C
:1051300000F06AFA0346142209210820FDF7EAFA72
:105140000021504600F060FA034612221121092086
:10515000FDF7E0FA0021282000F056FABDE8F05FE4
:105160000346152214210920FDF7D4BA4021014835
:10517000FBF74CBD0010014080210148FBF746BD04
:10518000001001404FF400710148FBF73FBD0000E3
:10519000001001404FF480710148FBF737BD00005B
:1051A000001001402DE9F04FCF1ADDE909EBAEEB1D
:1051B00002047C43DDE90D65A3EB0B07A0EB020CB9
:1051C000DDE90BA907FB0C48A6EB0A04A1EB0907D4
:1051D0007C43A9EB050CA0EB0A070CFB07444F1B13
:1051E000EB1A921B851B7A4303FB0522AAEB0E03E5
:1051F000A1EB0B014B43ABEB0901A0EB0E0001FB54
:105200000030B8F1000F06DB00280DDB002C0BDBB3
:10521000002A06DA08E0002806DA002C04DA002A60
:1052200002DA0120BDE8F08F0020FBE72DE9F05FF6
:1052300090460E46074600254FF461794FF4967B61
:10524000204CDFF884A02DE0454511DDFFF78EFFEF
:1052500010B9FFF791FF20B100234A461946642098
:1052600003E000235A4619464846FCF7E5FC12E0E5
:10527000FFF77CFF10B9FFF77FFF20B100234A46FC
:105280001946642004E000235A4619464FF42F7053
:10529000FCF7D2FC6D1C6068012803D1002060601F
:1052A000FDF712FD2069811BE068C01B00F020FBA8
:1052B00000225346FBF784F9C6D3BDE8F05F00F047
:1052C00065BA00001000002000001C402DE9F041EC
:1052D0000646FDF7B3FC4FF46174054600222046F4
:1052E00023461146FCF7A8FC3046FBF705F90746B4
:1052F0002846FBF73AF90E464FEA0005FDF79EFCFB
:10530000FBF733F902460B4628463146FDF728FAEB
:105310003946FBF789F9F1D3002321462246184686
:10532000FCF78AFC4FF49670FDF780FCBDE8F04175
:1053300000F02CBAFBF782FCFCF70DFDFCF728FC13
:1053400035483449002501604FF41651C0E9011574
:105350000C24C560C0E904548561C561FCF716F9E9
:1053600000B1FEE72C482D49403801604FF4E1318F
:10537000C0E90115C560C0E904548561C561FCF749
:1053800005F900B1FEE700F051F8FCF7A8FBFFF7C4
:105390008BF8FFF791F820484038FCF7CDFF1E4806
:1053A00001221F494038FCF77BF91B491DA0FCF77F
:1053B000BCFC1B4C641E07E06068012804D16560DA
:1053C000FDF782FCFDF702FC20780128F4D100BF34
:1053D000FDF7FCFBD4E90910D4E90C23FDF71EFD11
:1053E000A06303E0606801280FD0A06B401CF9D0D7
:1053F000D4E90910A26BFDF7C1FDA16B00F070F8B4
:10540000606AA062A06B6062E2E76560FDF75CFC29
:10541000DEE7000000440040A80000200038014002
:10542000110000206C6F6F700000000030B51F4C41
:1054300087B0E06940F00200E061E0691C4900F0DB
:10544000020006901B48002501604821C0E90115B3
:105450004FF47A71C0E903158561FBF7D4FF049519
:1054600004A914480595FBF73EFFA06940F004002D
:10547000A061A06900F004000690A06940F0080057
:10548000A061A069032400F008000690C0200090ED
:1054900002200190694603940748FBF7C3FA694666
:1054A00006480094FBF7BEFA07B030BD001002407A
:1054B00000040040D801002000080140000C014019
:1054C00006498A784131085C1AB1022803D10120CB
:1054D00070470128FCD00020704700001000002019
:1054E0002DE9F0410C460A2190FBF1F290FBF1F519
:1054F00001FB12063BA0B43DFBF7E2F92846FBF79F
:10550000CDF939A0FBF7DCF93046FBF7C7F937A036
:10551000FBF7D6F9364FB86AFBF7C0F9786AFBF7A4
:10552000BDF92046FBF7BAF932A0FBF7C9F9386B91
:10553000FBF7B4F9786BFBF7B1F930A0FBF7C0F9D2
:105540004FF0FF37002D0ADD2846FAF7DEFF3A4616
:10555000FAF7BBFFFAF7EAFF00F0BEF80BE00ADA51
:10556000C5F10000FAF7D1FF3A46FAF7AEFFFAF7B5
:10557000DDFFFFF7ABFE22482249052E2FD2DFE8E0
:1055800006F003090F1A240050F8243051F82400C3
:1055900000220BE050F8243051F82400142205E0DA
:1055A00050F8243051F8240042F21072BDE8F04166
:1055B000194600F0F1B850F8243051F82400BDE845
:1055C000F04100221946FFF731BE50F8243051F85F
:1055D0002400BDE8F0410022194600F01BB8BDE8E8
:1055E000F0810000413D00004F503D0053543D000C
:1055F000100000205441523D000000000A0000004D
:10560000CC5900081C590008B43000EB800001EBB5
:10561000400070472DE9F05F002691460F46804616
:1056200035464FF4617A284CDFF8A0B03CE035B144
:105630006D1E4E451DDDFFF7A5FD70B90AE024A0E3
:10564000FBF73EF9E068FBF729F92069FBF726F93B
:105650006425EEE7FFF79EFD20B100236422194682
:10566000504603E00023524664211846FCF7E4FA52
:1056700013E0FFF787FD10B9FFF78CFD20B1002381
:1056800064221946504605E000234FF42F72194654
:105690004FF49670FCF7D0FA761C6068012803D1AD
:1056A00000206060FDF710FB2069E268C11BA2EBDF
:1056B000080000F01DF900225B46FAF781FFB6D31F
:1056C000BDE8F05F00F062B81000002000001C4050
:1056D0006D793A20000000002DE9F0410646FDF703
:1056E000ADFA4FF461740546002321462246184660
:1056F000FCF7A2FA3046FAF7FFFE07462846FAF70B
:1057000034FF0E464FEA0005FDF798FAFAF72DFF31
:1057100002460B4628463146FDF722F83946FAF78D
:1057200083FFF1D30022204623461146FCF784FA7A
:105730004FF49670FDF77AFABDE8F04100F026B814
:105740002DE9F04106460F46FBF743F8041E0D46CF
:1057500018BF0120284320F00040C0F17F6000F115
:10576000E040C00F0ED0301C18BF0120384320F09D
:105770000040C0F17F6000F1E040C00F04BF012095
:10578000FCF7F0FE20462946BDE8F08100231A46CA
:1057900019461846FCF750BA2DE9F05F00269246EC
:1057A0000F46804635464FF4967B4FF42F79364CA2
:1057B0005AE0C5B16D1E2069A169431AE0686169AC
:1057C000421AA069D4F814C0391AA8EB0C0000F0F2
:1057D00065F8FAF70DFF10F17F5F0FD900235A46E5
:1057E0001946484616E029A0FBF76AF8E068FBF77F
:1057F00055F82069FBF752F86425DCE725494FF09E
:105800000003884203DD4A460021584602E048462C
:105810004A460021FCF710FA56451DDBFFF7A6FCAF
:1058200010B9FFF7A9FC28B100234FF461721946A3
:1058300064200FE0FFF7A6FC10B9FFF7ABFC28B11E
:105840000023642219464FF4617003E000234846A8
:105850004A461946FCF7F0F96068012804D1002097
:105860006060FDF731FA761C2069E268C11BA2EB8B
:10587000080000F03DF80022074BFAF7A1FE98D38C
:10588000BDE8F05FFFF782BF100000206D793A207D
:10589000000000000000404000001C402DE9F047DF
:1058A00098460446164600FB08F001FB16000F461A
:1058B000FAF72BFE0546744307FB08408946FAF7C2
:1058C00024FE02460B4628464946FDF793F800227F
:1058D000044BFAF719FDBDE8F047034A034BFAF70A
:1058E00085BD0000008066401F85EB51B81E094051
:1058F000404310B501FB0100FAF707FEBDE8104078
:10590000FFF71EBF000000000000000001020304BA
:10591000060708090000000001020304410000001E
:10592000B90000001E0000001E000000460000003C
:1059300075000000B8000000520000009400000054
:10594000D7000000B7000000700000008D000000CC
:10595000DB000000B4000000720000000301000042
:10596000FC000000C80000009E000000ED000000E8
:10597000ED000000280000007C000000A5000000F1
:10598000400000000A000000140000002700000092
:105990005300000003010000B900000008000000EF
:1059A0000C000000570000007C0000008100000097
:1059B0001F0000000B0000001B0000003F00000063
:1059C00041000000390000001F000000B900000085
:1059D00046000000B9000000F0000000F0000000E8
:1059E00004010000C600000062000000A2000000E8
:1059F0005D0000001E000000270000007D00000088
:105A0000CA000000A1000000E00000007E000000CD
:105A1000570000008C000000B500000049000000A5
:105A2000210000006C000000BA0000008F000000A0
:105A3000030100000401000066000000580000009F
:105A4000450000000F00000008000000B900000041
:105A50003A0000001B000000080000001E000000CB
:105A60007D00000077000000120000000D00000023
:105A700022000000440000002D0000000000000093
:105A80004FBB610567ACDD3F182D4454FB21E93F56
:105A90009BF681D20B73EF3F182D4454FB21F93F45
:105AA000E2652F227F2B7A3C075C143326A6813CCB
:105AB000BDCBF07A8807703C075C143326A6913C76
:105AC000C4EB98999999C9BF711623FEC671BCBFE2
:105AD0006D9A74AFF2B0B3BF9AFDDE522DDEADBF4A
